S01700004763634170706C69636174696F6E322E737265635A
S11300000C942A000C9434000C9434000C943400A6
S11300100C9434000C9434000C9434000C9434008C
S11300200C9434000C9434000C9434000C9434007C
S11300300C9434000C9434000C9434000C9434006C
S11300400C9434000C9434000C9434000C9434005C
S11300500C94340011241FBECFE5D4E0DEBFCDBF25
S11300600E9463000C9472000C94000086B18068B6
S113007086B986B1846086B986B1826086B986B154
S1130080816086B987B18F7787B987B18F7B87B94C
S113009087B18F7D87B90895877097B1907E97B99E
S11300A097B1892B87B986B1806486B9349BFECF1A
S11300B086B18F7E86B924B185B1837090E0982F84
S11300C08827822B08958FEF87BB0E94360080E03B
S11300D00E944C008B38924010F018BAF8CF82E09E
S10B00E088BBF5CFF894FFCFB3
S9030000FC
